:100000000C942A000C9405010C9431010C944700C7
:100010000C9447000C9447000C9447000C94470044
:100020000C9447000C9489010C9458010C946201C3
:100030000C9447000C9447000C9447000C94470024
:100040000C9457000C9447000C9447000C94470004
:100050000C94470011241FBECFE5D8E0DEBFCDBF12
:1000600010E0A0E6B0E0E6E3F3E002C005900D92F8
:10007000A036B107D9F720E0A0E6B0E001C01D929C
:10008000A836B207E1F70E9449000C9499010C943C
:10009000000060E088E10E947E0061E089E10E944A
:1000A0007E000E948A0181E40E949301FCCF1F928E
:1000B0000F920FB60F9211242F933F934F935F939C
:1000C0006F937F938F939F93AF93BF93EF93FF9320
:1000D000E0916000F09161000995FF91EF91BF916F
:1000E000AF919F918F917F916F915F914F913F91D0
:1000F0002F910F900FBE0F901F901895982F9695E7
:10010000969596958770662309F43FC0613009F093
:100110007BC0913099F028F09230E9F0933041F1B2
:1001200008954AB321E030E0B90102C0660F771F9D
:100130008A95E2F7CB01842B8ABB089547B321E06F
:1001400030E0B90102C0660F771F8A95E2F7CB0154
:10015000842B87BB089544B321E030E0B90102C08D
:10016000660F771F8A95E2F7CB01842B84BB089535
:1001700041B321E030E0B90102C0660F771F8A95D4
:10018000E2F7CB01842B81BB08959130A1F028F0D8
:100190009230F9F0933059F108954AB321E030E0FC
:1001A000B90102C0660F771F8A95E2F7CB018095EF
:1001B00084238ABB089547B321E030E0B90102C02F
:1001C000660F771F8A95E2F7CB018095842387BB62
:1001D000089544B321E030E0B90102C0660F771FF3
:1001E0008A95E2F7CB018095842384BB089541B3BF
:1001F00021E030E0B90102C0660F771F8A95E2F76F
:10020000CB018095842381BB08951F920F920FB676
:100210000F9211242F933F934F935F936F937F938C
:100220008F939F93AF93BF93EF93FF93E0916200FF
:10023000F0916300309709F009958BB780648BBF0C
:10024000FF91EF91BF91AF919F918F917F916F91AE
:100250005F914F913F912F910F900FBE0F901F9084
:1002600018951F920F920FB60F9211242F933F9360
:100270004F935F936F937F938F939F93AF93BF93AE
:10028000EF93FF93E0916400F09165000995FF9171
:10029000EF91BF91AF919F918F917F916F915F91FE
:1002A0004F913F912F910F900FBE0F901F90189577
:1002B0001F920F920FB60F9211240F900FBE0F9046
:1002C0001F9018951F920F920FB60F9211242F9323
:1002D0003F934F935F936F937F938F939F93AF93CE
:1002E000BF93EF93FF93E0916600F091670009954B
:1002F000FF91EF91BF91AF919F918F917F916F91FE
:100300005F914F913F912F910F900FBE0F901F90D3
:100310001895089583E390E09AB989B988E18AB97C
:100320008EE880BD08955D9BFECF90E09DB98CB9AD
:060330000895F894FFCFD0
:00000001FF
